{
	"data": {
		"bytecode": {
			"linkReferences": {},
			"object": "608060405234801561001057600080fd5b5061015b806100206000396000f3fe608060405234801561001057600080fd5b50600436106100365760003560e01c8063d32cb0fe1461003b578063f8a8fd6d14610045575b600080fd5b61004361004f565b005b61004d61009b565b005b603c80146100605761005f6100f6565b5b620151808014610073576100726100f6565b5b620151808014610086576100856100f6565b5b62093a808014610099576100986100f6565b5b565b670de0b6b3a764000080146100b3576100b26100f6565b5b600180146100c4576100c36100f6565b5b670de0b6b3a764000080146100dc576100db6100f6565b5b671bc16d674ec8000080146100f4576100f36100f6565b5b565b7f4e487b7100000000000000000000000000000000000000000000000000000000600052600160045260246000fdfea26469706673582212205d7aa4dcfd920a37c48af8864413e474e19ec758a1774edd340cf6f4075583c764736f6c63430008070033",
			"opcodes": "PUSH1 0x80 PUSH1 0x40 MSTORE CALLVALUE DUP1 ISZERO PUSH2 0x10 JUMPI PUSH1 0x0 DUP1 REVERT JUMPDEST POP PUSH2 0x15B DUP1 PUSH2 0x20 PUSH1 0x0 CODECOPY PUSH1 0x0 RETURN INVALID PUSH1 0x80 PUSH1 0x40 MSTORE CALLVALUE DUP1 ISZERO PUSH2 0x10 JUMPI PUSH1 0x0 DUP1 REVERT JUMPDEST POP PUSH1 0x4 CALLDATASIZE LT PUSH2 0x36 JUMPI PUSH1 0x0 CALLDATALOAD PUSH1 0xE0 SHR DUP1 PUSH4 0xD32CB0FE EQ PUSH2 0x3B JUMPI DUP1 PUSH4 0xF8A8FD6D EQ PUSH2 0x45 JUMPI JUMPDEST PUSH1 0x0 DUP1 REVERT JUMPDEST PUSH2 0x43 PUSH2 0x4F JUMP JUMPDEST STOP JUMPDEST PUSH2 0x4D PUSH2 0x9B JUMP JUMPDEST STOP JUMPDEST PUSH1 0x3C DUP1 EQ PUSH2 0x60 JUMPI PUSH2 0x5F PUSH2 0xF6 JUMP JUMPDEST JUMPDEST PUSH3 0x15180 DUP1 EQ PUSH2 0x73 JUMPI PUSH2 0x72 PUSH2 0xF6 JUMP JUMPDEST JUMPDEST PUSH3 0x15180 DUP1 EQ PUSH2 0x86 JUMPI PUSH2 0x85 PUSH2 0xF6 JUMP JUMPDEST JUMPDEST PUSH3 0x93A80 DUP1 EQ PUSH2 0x99 JUMPI PUSH2 0x98 PUSH2 0xF6 JUMP JUMPDEST JUMPDEST JUMP JUMPDEST PUSH8 0xDE0B6B3A7640000 DUP1 EQ PUSH2 0xB3 JUMPI PUSH2 0xB2 PUSH2 0xF6 JUMP JUMPDEST JUMPDEST PUSH1 0x1 DUP1 EQ PUSH2 0xC4 JUMPI PUSH2 0xC3 PUSH2 0xF6 JUMP JUMPDEST JUMPDEST PUSH8 0xDE0B6B3A7640000 DUP1 EQ PUSH2 0xDC JUMPI PUSH2 0xDB PUSH2 0xF6 JUMP JUMPDEST JUMPDEST PUSH8 0x1BC16D674EC80000 DUP1 EQ PUSH2 0xF4 JUMPI PUSH2 0xF3 PUSH2 0xF6 JUMP JUMPDEST JUMPDEST JUMP JUMPDEST PUSH32 0x4E487B7100000000000000000000000000000000000000000000000000000000 PUSH1 0x0 MSTORE PUSH1 0x1 PUSH1 0x4 MSTORE PUSH1 0x24 PUSH1 0x0 REVERT INVALID LOG2 PUSH5 0x6970667358 0x22 SLT KECCAK256 0x5D PUSH27 0xA4DCFD920A37C48AF8864413E474E19EC758A1774EDD340CF6F407 SSTORE DUP4 0xC7 PUSH5 0x736F6C6343 STOP ADDMOD SMOD STOP CALLER "
		},
		"gasEstimates": {
			"creation": {
				"codeDepositCost": "69400",
				"executionCost": "117",
				"totalCost": "69517"
			},
			"external": {
				"exercise()": "214",
				"test()": "236"
			}
		},
		"methodIdentifiers": {
			"exercise()": "d32cb0fe",
			"test()": "f8a8fd6d"
		}
	},
	"abi": [
		{
			"inputs": [],
			"name": "exercise",
			"outputs": [],
			"stateMutability": "nonpayable",
			"type": "function"
		},
		{
			"inputs": [],
			"name": "test",
			"outputs": [],
			"stateMutability": "nonpayable",
			"type": "function"
		}
	]
}